:020000040000fa
:080000000002040000000000f2
:020000040000fa
:040008009c03000055
:020000040000fa
:04000c009c03000051
:020000040000fa
:040010009c0300004d
:020000040000fa
:040014009c03000049
:020000040000fa
:040018009c03000045
:020000040000fa
:04001c009c03000041
:020000040000fa
:040020009c0300003d
:020000040000fa
:040024009c03000039
:020000040000fa
:040028009c03000035
:020000040000fa
:04002c009c03000031
:020000040000fa
:04003000c802000002
:020000040000fa
:040034009c03000029
:020000040000fa
:040038009c03000025
:020000040000fa
:04003c009c03000021
:020000040000fa
:040040005a0300005f
:020000040000fa
:040044009c03000019
:020000040000fa
:040048009c03000015
:020000040000fa
:04004c009c03000011
:020000040000fa
:040050009c0300000d
:020000040000fa
:040054009c03000009
:020000040000fa
:040058009c03000005
:020000040000fa
:04005c009c03000001
:020000040000fa
:040060009c030000fd
:020000040000fa
:040064009c030000f9
:020000040000fa
:040068009c030000f5
:020000040000fa
:04006c009c030000f1
:020000040000fa
:040070009c030000ed
:020000040000fa
:040074009c030000e9
:020000040000fa
:040078009c030000e5
:020000040000fa
:04007c009c030000e1
:020000040000fa
:040080009c030000dd
:020000040000fa
:040084009c030000d9
:020000040000fa
:040088009c030000d5
:020000040000fa
:04008c009c030000d1
:020000040000fa
:040090009c030000cd
:020000040000fa
:040094009c030000c9
:020000040000fa
:040098009c030000c5
:020000040000fa
:04009c009c030000c1
:020000040000fa
:0400a0009c030000bd
:020000040000fa
:0400a4009c030000b9
:020000040000fa
:0400a8009c030000b5
:020000040000fa
:0400ac009c030000b1
:020000040000fa
:0400b0009c030000ad
:020000040000fa
:0400b4009c030000a9
:020000040000fa
:0400b8009c030000a5
:020000040000fa
:0400bc009c030000a1
:020000040000fa
:0400c0009c0300009d
:020000040000fa
:0400c4009c03000099
:020000040000fa
:0400c8009c03000095
:020000040000fa
:0400cc009c03000091
:020000040000fa
:0400d0009c0300008d
:020000040000fa
:0400d4009c03000089
:020000040000fa
:0400d8009c03000085
:020000040000fa
:0400dc009c03000081
:020000040000fa
:0400e0009c0300007d
:020000040000fa
:0400e4009c03000079
:020000040000fa
:0400e8009c03000075
:020000040000fa
:0400ec009c03000071
:020000040000fa
:0400f0009c0300006d
:020000040000fa
:0400f4009c03000069
:020000040000fa
:0400f8009c03000065
:020000040000fa
:0400fc009c03000061
:020000040000fa
:040100009c0300005c
:020000040000fa
:040104009c03000058
:020000040000fa
:040108009c03000054
:020000040000fa
:04010c009c03000050
:020000040000fa
:040110009c0300004c
:020000040000fa
:040114009c03000048
:020000040000fa
:040118009c03000044
:020000040000fa
:04011c009c03000040
:020000040000fa
:040120009c0300003c
:020000040000fa
:040124009c03000038
:020000040000fa
:040128009c03000034
:020000040000fa
:04012c009c03000030
:020000040000fa
:040130009c0300002c
:020000040000fa
:040134009c03000028
:020000040000fa
:040138009c03000024
:020000040000fa
:04013c009c03000020
:020000040000fa
:040140009c0300001c
:020000040000fa
:040144009c03000018
:020000040000fa
:040148009c03000014
:020000040000fa
:04014c009c03000010
:020000040000fa
:040150009c0300000c
:020000040000fa
:040154009c03000008
:020000040000fa
:040158009c03000004
:020000040000fa
:04015c009c03000000
:020000040000fa
:040160009c030000fc
:020000040000fa
:040164009c030000f8
:020000040000fa
:040168009c030000f4
:020000040000fa
:040208009c03000053
:020000040000fa
:04020c009c0300004f
:020000040000fa
:040210009c0300004b
:020000040000fa
:040214009c03000047
:020000040000fa
:040218009c03000043
:020000040000fa
:04021c009c0300003f
:020000040000fa
:040220009c0300003b
:020000040000fa
:040224009c03000037
:020000040000fa
:040228009c03000033
:020000040000fa
:04022c009c0300002f
:020000040000fa
:04023000c802000000
:020000040000fa
:040234009c03000027
:020000040000fa
:040238009c03000023
:020000040000fa
:04023c009c0300001f
:020000040000fa
:040240005a0300005d
:020000040000fa
:040244009c03000017
:020000040000fa
:040248009c03000013
:020000040000fa
:04024c009c0300000f
:020000040000fa
:040250009c0300000b
:020000040000fa
:040254009c03000007
:020000040000fa
:040258009c03000003
:020000040000fa
:04025c009c030000ff
:020000040000fa
:040260009c030000fb
:020000040000fa
:040264009c030000f7
:020000040000fa
:040268009c030000f3
:020000040000fa
:04026c009c030000ef
:020000040000fa
:040270009c030000eb
:020000040000fa
:040274009c030000e7
:020000040000fa
:040278009c030000e3
:020000040000fa
:04027c009c030000df
:020000040000fa
:040280009c030000db
:020000040000fa
:040284009c030000d7
:020000040000fa
:040288009c030000d3
:020000040000fa
:04028c009c030000cf
:020000040000fa
:040290009c030000cb
:020000040000fa
:040294009c030000c7
:020000040000fa
:040298009c030000c3
:020000040000fa
:04029c009c030000bf
:020000040000fa
:0402a0009c030000bb
:020000040000fa
:0402a4009c030000b7
:020000040000fa
:0402a8009c030000b3
:020000040000fa
:0402ac009c030000af
:020000040000fa
:0402b0009c030000ab
:020000040000fa
:0402b4009c030000a7
:020000040000fa
:0402b8009c030000a3
:020000040000fa
:0402bc009c0300009f
:020000040000fa
:0402c0009c0300009b
:020000040000fa
:0402c4009c03000097
:020000040000fa
:0402c8009c03000093
:020000040000fa
:0402cc009c0300008f
:020000040000fa
:0402d0009c0300008b
:020000040000fa
:0402d4009c03000087
:020000040000fa
:0402d8009c03000083
:020000040000fa
:0402dc009c0300007f
:020000040000fa
:0402e0009c0300007b
:020000040000fa
:0402e4009c03000077
:020000040000fa
:0402e8009c03000073
:020000040000fa
:0402ec009c0300006f
:020000040000fa
:0402f0009c0300006b
:020000040000fa
:0402f4009c03000067
:020000040000fa
:0402f8009c03000063
:020000040000fa
:0402fc009c0300005f
:020000040000fa
:040300009c0300005a
:020000040000fa
:040304009c03000056
:020000040000fa
:040308009c03000052
:020000040000fa
:04030c009c0300004e
:020000040000fa
:040310009c0300004a
:020000040000fa
:040314009c03000046
:020000040000fa
:040318009c03000042
:020000040000fa
:04031c009c0300003e
:020000040000fa
:040320009c0300003a
:020000040000fa
:040324009c03000036
:020000040000fa
:040328009c03000032
:020000040000fa
:04032c009c0300002e
:020000040000fa
:040330009c0300002a
:020000040000fa
:040334009c03000026
:020000040000fa
:040338009c03000022
:020000040000fa
:04033c009c0300001e
:020000040000fa
:040340009c0300001a
:020000040000fa
:040344009c03000016
:020000040000fa
:040348009c03000012
:020000040000fa
:04034c009c0300000e
:020000040000fa
:040350009c0300000a
:020000040000fa
:040354009c03000006
:020000040000fa
:040358009c03000002
:020000040000fa
:04035c009c030000fe
:020000040000fa
:040360009c030000fa
:020000040000fa
:040364009c030000f6
:020000040000fa
:040368009c030000f2
:020000040000fa
:10040000af8020000eff20000e01880000000000d9
:10041000000020000000e000020032000001200087
:100420002002880014000700c50007000000e0005b
:1004300003003a0060752000010020000200370030
:100440000000200001002000810f70000100320038
:1004500014000700000020000000e000020032004d
:1004600000000200000000000e0602000000000074
:100470000040da000000fe004440a9000000200017
:100480000000e0000300320000002000a00188000e
:100490004440a800000006008a1f78008b1f7800e7
:1004a0000000060091018800800478000000eb0045
:1004b0001a003700e284440032a0b4009905ba0063
:1004c000e284440032a0b4009906ba00e2844400f9
:1004d00032a0b4000006eb00476fde00fd07b2005b
:1004e000636ce10003003a00ebff07000000eb0043
:1004f0000a003700606ce10004003a00005deb0088
:100500008b05e900fdff3e00040037006168e10053
:10051000010032000086eb000b00070019c7ba008b
:100520001905ba000e04e00003003a000a00e000da
:10053000e0ff3a0000000600fe07b2009e018800be
:100540008a047800f5ff3700395dba008b05e900b1
:100550000c003200295dba008b05e900080032006a
:100560000c00e00003003a00e284440032a0b40032
:10057000f5ff370019ddba008b05e900faff3a00f4
:100580008904e800e184440032a0b40000000600c1
:100590003600f800809fbe00829fbe00849fbe0090
:1005a000869fbe00881f78000000fa008440a900e2
:1005b000404080000000e0003600350040408000f0
:1005c0000000e8004040880041408000004080007a
:1005d000808f500001003a00cb02a800014080004b
:1005e000104080008080400040408000808f50009c
:1005f00001003a00cb02a9000140800010408000b9
:100600000084400000002000412b2400fb01070073
:100610008000440040408000808f500001003a007c
:10062000cb02a8001040800000004000800078004d
:10063000004080000084400000002000412b240086
:10064000ee0107008000440040408000808f500091
:1006500001003a00cb02a900014080001040800058
:1006600000804000000040000004780000002000ee
:10067000412b2400e101070080004400404080003d
:10068000808f500003003a000080eb00404088005b
:10069000cb02a8000080fa004f0478004f03be0090
:1006a0004f02be004f01be004f00be003600f900f1
:1006b00000400600809fbe000000fa0084c0a90030
:1006c000404080000000e0001700350041408000fd
:1006d00000192000808f500001003a00c202a800db
:1006e00041408000201c2000808f500002003a0012
:1006f000ca22a900c202a90041408000002d2000aa
:10070000808f500001003a00c202a80041408000e2
:1007100020302000808f500004003a00ca22a80038
:10072000c202a90001003700c202a8000080fa003e
:100730004f00be00004006000040da000000fe004e
:1007400000000500889fbe008a9fbe008c1f7800b5
:10075000b7000700be00330003866c006450e10060
:100760002e0032006420e100330032006150e100cd
:100770002f0032006120e1003100320085855500f4
:10078000eb07b00009002000080420000500370036
:100790000804440089844c000a0031000603430029
:1007a00087834b000001530081815b00f8ff330019
:1007b0000203be000800a0000804440089844c0025
:1007c000f6ff3900c639dd008301730001003200f5
:1007d000130020008904d1000884d3000998a300e5
:1007e000050032000800a7000300a0008904d10022
:1007f0000884d3008b05e8008904d1000884d30065
:100800000001eb000281d2004e00070001f0a100c0
:100810000cf0a70001f0a000960037006420e10072
:10082000980032000801be000200be00f7ff37004a
:100830006120e100930032006000b800f3ff370050
:100840000000200001f82700f0ff37000001be0083
:10085000620007000470a70003f0a1006509b10061
:10086000160032000d0035006828e1000600350052
:10087000f0ff2f00f1ff27000300e00013003b0012
:1008800001002800000005000000400081804800b1
:100890008502e900fcff3a0008003700f88f4200ab
:1008a00002003c008000eb00000005008100d10048
:1008b0000080d3008502e800fcff3a000300e0005e
:1008c00002003b0060001000e080180000000600fd
:1008d0000001be00410007000470a70003f0a10062
:1008e00003f8a30013003a006509b10010003200bc
:1008f000090035006928e1000200350001002800e8
:100900000000050000004000818048008502e900e9
:10091000fcff3a0000000600f88f42000500350099
:100920008100d1000080d3008502e800fcff3a007e
:10093000000006008000eb00000005006011b80018
:100940008700370081002000618055000b003d00ca
:100950000b00200061fe2f000100e1001d003400ab
:1009600082817100610164008904d1000884d30090
:100970000000e800faff3a00710020006100640006
:1009800003007000020060000900320061044400ae
:10099000e0844c000988a500050032008b05e800c2
:1009a0006808e10002003a008904d1000884d300fd
:1009b000f20f20000258e10005003d00c75ddd0098
:1009c000f907b20089807500080078000000060071
:1009d0000bf827008b00780000000500c70ade0036
:1009e000f107b200f50fb20008003200e1cf42007b
:1009f000020032000170a00024000500810f700089
:100a0000010032000408050044000500810f700059
:100a100002003a00140005008502e90000004000d1
:100a200081c04800fcff3b000170a00024000500cd
:100a30000004be00e9ff07000003be000405be007d
:100a40000200be00e5ff0700844f750000000600ad
:100a50000200be006450e100050036006420e100a1
:100a6000020036000968a30001003a000800be0039
:100a70000160a0004f0678004f05be004f04be0085
:100a800000000600f0ff2f00f1ff2700f9ff3700fc
:100a9000889fbe008a9fbe008c1f7800e4ff07007d
:100aa000ebff330003866c006450e1002400320049
:100ab0006420e100270032006150e1002200320092
:100ac0006120e100210032008b854200eb07b1007c
:100ad0000134b800003ab8000804420089844a0092
:100ae000013ab8000030b8008880400009014a008f
:100af00004003300000040008180480002014900ea
:100b00008b05e900c909dd00830170000100320096
:100b100013002000c814de004814dd004709de0081
:100b20001200b200c808de000884700085ff0700cc
:100b300001f0a1000cf0a70001f0a000cdff3700ec
:100b40006120e100cfff32000801be000200be00bc
:100b5000f7ff37006150e100fcff3a00c9ff3700a2
:100b6000889fbe008a9fbe00008270000402710050
:100b700004827100260032000004be000200be00a4
:100b80006011b8006b092000950220000182cf009f
:100b90000a0039000541b1000082cf00070039008a
:100ba0000541b1000982cf00040039000541b100c0
:100bb0000882cf00010039000541b1000542520012
:100bc000120032000a003b00828171006101640062
:100bd0008100d1000080d3008984d3000884d30031
:100be0008b05e8000442e800f7ff3a0007003700f1
:100bf0000804440089844c000000480081804800bb
:100c00008b05e9000442e900f9ff3a004dff0700b7
:0c0c10004f05be004f04be0000000600af
:020000040000fa
:100c1c000000fa00c022ef00c822ef00e224ef002f
:100c2c00140020000200200003f02300000020002c
:100c3c00a12a2400070007000002eb00020020009c
:100c4c0003f0230000002000a12a24003500070037
:100c5c00ffff37000a00fa00008fbe002207980041
:100c6c0033079800440798001e00be0015ff0700cc
:100c7c0000007800f00c8800f00c80008000eb0085
:100c8c002bff07002e019000be0190007dff070096
:100c9c00ebfe070000007800000d88004e0090006d
:100cac0000407800614060000080fb006100600043
:100cbc0000004000511680000110a10001007000de
:100ccc0050168800c202a9009a21ef00d10c8000b6
:100cdc0000c0210001007000d00c8800e00c8000e6
:100cec00f001b300e00c88009ce1a900d10c80005d
:100cfc0080ff2f00008060006000b300d00c8800e3
:100d0c0031058000f08f2f000080600000a0a00053
:100d1c003005880094c0a80084c0a9000080fa00a7
:100d2c00000006000a00fa00008fbe00220798009f
:100d3c0033079800440798001e00be00e1fe070030
:100d4c0000007800a00c8800a00c80008000eb0054
:100d5c00f7fe07002e019000be01900049ff07002e
:100d6c00b7fe070000007800b00c88004e00900021
:100d7c0000407800614060000080fb006100600072
:100d8c004900dd00511680000190a10001007000a7
:100d9c00501688009021ef00810c800000c02100cb
:100dac0001007000800c8800900c8000f001b300f2
:100dbc00900c880092e1a900810c800080ff2f002c
:100dcc00008060006000b300800c8800210580006a
:100ddc00f08f2f000080600000a0a000200588008c
:100dec009440a8008440a9000080fa00000006008e
:100dfc001600fa00100f9800210f98002040800078
:100e0c00314080001e099000ae0990001dff0700c4
:100e1c00020020004333240047fe0700008fbe0071
:100e2c000000eb00200798000000200001062400c1
:100e3c00300798004107980000002000010a2400a8
:100e4c0050079800610798006000b8007007980080
:100e5c00010f98005e019000ee0190001e00be0094
:100e6c0008ff070070079800010f980020408000d1
:100e7c00314080007e0190008e09900001ff070038
:100e8c003e019000ce019000fefe07006cfe0700b4
:100e9c00200798002e0090000080fa000000060049
:020000040000fa
:100eac00080800000200000000000000000800001c
:100ebc0008000000020000009001320000d00f007a
:080ecc00494000000000000095
:020000040000fa
:0200000401f009
:04000c00fdff0000f4
:00000001FF
