:020000040000fa
:080000000002040000000000f2
:020000040000fa
:040008006803000089
:020000040000fa
:04000c006803000085
:020000040000fa
:040010006803000081
:020000040000fa
:04001400680300007d
:020000040000fa
:040018006803000079
:020000040000fa
:04001c006803000075
:020000040000fa
:040020006803000071
:020000040000fa
:04002400680300006d
:020000040000fa
:040028006803000069
:020000040000fa
:04002c006803000065
:020000040000fa
:04003000c802000002
:020000040000fa
:04003400680300005d
:020000040000fa
:040038006803000059
:020000040000fa
:04003c006803000055
:020000040000fa
:040040001a0300009f
:020000040000fa
:04004400680300004d
:020000040000fa
:040048006803000049
:020000040000fa
:04004c006803000045
:020000040000fa
:040050006803000041
:020000040000fa
:04005400680300003d
:020000040000fa
:040058006803000039
:020000040000fa
:04005c006803000035
:020000040000fa
:040060006803000031
:020000040000fa
:04006400680300002d
:020000040000fa
:040068006803000029
:020000040000fa
:04006c006803000025
:020000040000fa
:040070006803000021
:020000040000fa
:04007400680300001d
:020000040000fa
:040078006803000019
:020000040000fa
:04007c006803000015
:020000040000fa
:040080006803000011
:020000040000fa
:04008400680300000d
:020000040000fa
:040088006803000009
:020000040000fa
:04008c006803000005
:020000040000fa
:040090006803000001
:020000040000fa
:0400940068030000fd
:020000040000fa
:0400980068030000f9
:020000040000fa
:04009c0068030000f5
:020000040000fa
:0400a00068030000f1
:020000040000fa
:0400a40068030000ed
:020000040000fa
:0400a80068030000e9
:020000040000fa
:0400ac0068030000e5
:020000040000fa
:0400b00068030000e1
:020000040000fa
:0400b40068030000dd
:020000040000fa
:0400b80068030000d9
:020000040000fa
:0400bc0068030000d5
:020000040000fa
:0400c00068030000d1
:020000040000fa
:0400c40068030000cd
:020000040000fa
:0400c80068030000c9
:020000040000fa
:0400cc0068030000c5
:020000040000fa
:0400d00068030000c1
:020000040000fa
:0400d40068030000bd
:020000040000fa
:0400d80068030000b9
:020000040000fa
:0400dc0068030000b5
:020000040000fa
:0400e00068030000b1
:020000040000fa
:0400e40068030000ad
:020000040000fa
:0400e80068030000a9
:020000040000fa
:0400ec0068030000a5
:020000040000fa
:0400f00068030000a1
:020000040000fa
:0400f400680300009d
:020000040000fa
:0400f8006803000099
:020000040000fa
:0400fc006803000095
:020000040000fa
:040100006803000090
:020000040000fa
:04010400680300008c
:020000040000fa
:040108006803000088
:020000040000fa
:04010c006803000084
:020000040000fa
:040110006803000080
:020000040000fa
:04011400680300007c
:020000040000fa
:040118006803000078
:020000040000fa
:04011c006803000074
:020000040000fa
:040120006803000070
:020000040000fa
:04012400680300006c
:020000040000fa
:040128006803000068
:020000040000fa
:04012c006803000064
:020000040000fa
:040130006803000060
:020000040000fa
:04013400680300005c
:020000040000fa
:040138006803000058
:020000040000fa
:04013c006803000054
:020000040000fa
:040140006803000050
:020000040000fa
:04014400680300004c
:020000040000fa
:040148006803000048
:020000040000fa
:04014c006803000044
:020000040000fa
:040150006803000040
:020000040000fa
:04015400680300003c
:020000040000fa
:040158006803000038
:020000040000fa
:04015c006803000034
:020000040000fa
:040160006803000030
:020000040000fa
:04016400680300002c
:020000040000fa
:040168006803000028
:020000040000fa
:040208006803000087
:020000040000fa
:04020c006803000083
:020000040000fa
:04021000680300007f
:020000040000fa
:04021400680300007b
:020000040000fa
:040218006803000077
:020000040000fa
:04021c006803000073
:020000040000fa
:04022000680300006f
:020000040000fa
:04022400680300006b
:020000040000fa
:040228006803000067
:020000040000fa
:04022c006803000063
:020000040000fa
:04023000c802000000
:020000040000fa
:04023400680300005b
:020000040000fa
:040238006803000057
:020000040000fa
:04023c006803000053
:020000040000fa
:040240001a0300009d
:020000040000fa
:04024400680300004b
:020000040000fa
:040248006803000047
:020000040000fa
:04024c006803000043
:020000040000fa
:04025000680300003f
:020000040000fa
:04025400680300003b
:020000040000fa
:040258006803000037
:020000040000fa
:04025c006803000033
:020000040000fa
:04026000680300002f
:020000040000fa
:04026400680300002b
:020000040000fa
:040268006803000027
:020000040000fa
:04026c006803000023
:020000040000fa
:04027000680300001f
:020000040000fa
:04027400680300001b
:020000040000fa
:040278006803000017
:020000040000fa
:04027c006803000013
:020000040000fa
:04028000680300000f
:020000040000fa
:04028400680300000b
:020000040000fa
:040288006803000007
:020000040000fa
:04028c006803000003
:020000040000fa
:0402900068030000ff
:020000040000fa
:0402940068030000fb
:020000040000fa
:0402980068030000f7
:020000040000fa
:04029c0068030000f3
:020000040000fa
:0402a00068030000ef
:020000040000fa
:0402a40068030000eb
:020000040000fa
:0402a80068030000e7
:020000040000fa
:0402ac0068030000e3
:020000040000fa
:0402b00068030000df
:020000040000fa
:0402b40068030000db
:020000040000fa
:0402b80068030000d7
:020000040000fa
:0402bc0068030000d3
:020000040000fa
:0402c00068030000cf
:020000040000fa
:0402c40068030000cb
:020000040000fa
:0402c80068030000c7
:020000040000fa
:0402cc0068030000c3
:020000040000fa
:0402d00068030000bf
:020000040000fa
:0402d40068030000bb
:020000040000fa
:0402d80068030000b7
:020000040000fa
:0402dc0068030000b3
:020000040000fa
:0402e00068030000af
:020000040000fa
:0402e40068030000ab
:020000040000fa
:0402e80068030000a7
:020000040000fa
:0402ec0068030000a3
:020000040000fa
:0402f000680300009f
:020000040000fa
:0402f400680300009b
:020000040000fa
:0402f8006803000097
:020000040000fa
:0402fc006803000093
:020000040000fa
:04030000680300008e
:020000040000fa
:04030400680300008a
:020000040000fa
:040308006803000086
:020000040000fa
:04030c006803000082
:020000040000fa
:04031000680300007e
:020000040000fa
:04031400680300007a
:020000040000fa
:040318006803000076
:020000040000fa
:04031c006803000072
:020000040000fa
:04032000680300006e
:020000040000fa
:04032400680300006a
:020000040000fa
:040328006803000066
:020000040000fa
:04032c006803000062
:020000040000fa
:04033000680300005e
:020000040000fa
:04033400680300005a
:020000040000fa
:040338006803000056
:020000040000fa
:04033c006803000052
:020000040000fa
:04034000680300004e
:020000040000fa
:04034400680300004a
:020000040000fa
:040348006803000046
:020000040000fa
:04034c006803000042
:020000040000fa
:04035000680300003e
:020000040000fa
:04035400680300003a
:020000040000fa
:040358006803000036
:020000040000fa
:04035c006803000032
:020000040000fa
:04036000680300002e
:020000040000fa
:04036400680300002a
:020000040000fa
:040368006803000026
:020000040000fa
:100400008f8020000eff20000e01880000000000f9
:10041000000020000000e000020032000001200087
:100420002002880014000700ab0007000000e00075
:1004300003003a00c06620000100200002003700df
:100440000000200001002000810f70000100320038
:1004500014000700000020000000e000020032004d
:10046000000002000000000056050200000000002d
:100470000040da000000fe004440a9000000200017
:100480000000e0000300320000002000a00188000e
:100490004440a800000006008a1f78008b1f7800e7
:1004a0000000060091018800800478000000eb0045
:1004b0001a003700e284440032a0b4009905ba0063
:1004c000e284440032a0b4009906ba00e2844400f9
:1004d00032a0b4000006eb00476fde00fd07b2005b
:1004e000636ce10003003a00ebff07000000eb0043
:1004f0000a003700606ce10004003a00005deb0088
:100500008b05e900fdff3e00040037006168e10053
:10051000010032000086eb000b00070019c7ba008b
:100520001905ba000e04e00003003a000a00e000da
:10053000e0ff3a0000000600fe07b2009e018800be
:100540008a047800f5ff3700395dba008b05e900b1
:100550000c003200295dba008b05e900080032006a
:100560000c00e00003003a00e284440032a0b40032
:10057000f5ff370019ddba008b05e900faff3a00f4
:100580008904e800e184440032a0b40000000600c1
:10059000809fbe000000fa008440a9000040800057
:1005a0000000e00020003500004080000000e8006e
:1005b000004088000140800000642000808f5000cf
:1005c00001003a00c202a80001408000206720001c
:1005d000808f500002003a00c222a900c202a90086
:1005e00001408000c0a82000808f500001003a0028
:1005f000c202a8000140800090a52000808f50001a
:1006000002003a00c222a800c202a90001408000f4
:1006100000fa2000808f500003003a000080eb00b9
:1006200000408800c202a8000080fa004f00be000f
:1006300000400600809fbe000000fa0084c0a900b0
:10064000104080000000e0001e00350010408000d7
:100650000000e80010408800114080000064200085
:10066000808f500001003a00cb02a80011408000aa
:1006700020672000808f500001003a00cb02a900c3
:100680001140800090a52000808f500001003a00aa
:10069000cb02a80011408000c0a82000808f50002d
:1006a00001003a00cb02a9001140800000fa2000ae
:1006b000808f500003003a000080eb00104088005b
:1006c000cb02a8000080fa004f00be0000400600e8
:1006d0000040da000000fe00000005000001be003e
:1006e0003c0007000470a70003f0a1006509b100f9
:1006f000160032000d0035006828e10006003500c4
:10070000f0ff2f00f1ff27000300e00013003b0083
:100710000100280000000500000040008180480022
:100720008502e900fcff3a0008003700f88f42001c
:1007300002003c008000eb00000005008100d100b9
:100740000080d3008502e800fcff3a000300e000cf
:1007500002003b0060001000e0801800000006006e
:100760000001be001b0007000470a70003f0a100f9
:1007700003f8a30013003a006509b100100032002d
:10078000090035006928e100020035000100280059
:100790000000050000004000818048008502e9005b
:1007a000fcff3a0000000600f88f4200050035000b
:1007b0008100d1000080d3008502e800fcff3a00f0
:1007c000000006008000eb00000005006011b8008a
:1007d00049003700c70ade00f107b200f50fb2008a
:1007e00008003200e1cf4200020032000170a00098
:1007f00024000500810f700001003200040805008c
:1008000044000500810f700002003a00140005004a
:100810008502e9000000400081c04800fcff3b0069
:100820000170a00024000500889fbe008a9fbe00c2
:100830008c1f7800850007008c00330003866c0055
:100840006450e100240032006420e10027003200ff
:100850006150e100220032006120e10021003200fd
:100860008b854200eb07b1000134b800003ab800b4
:100870000804420089844a00013ab8000030b800f8
:100880008880400009014a00040033000000400055
:1008900081804800020149008b05e900c909dd009b
:1008a000830170000100320013002000c814de0034
:1008b0004814dd004709de001200b200c808de005f
:1008c000088470003b00070001f0a1000cf0a700b5
:1008d00001f0a0006e0037006120e10070003200de
:1008e0000801be000200be00f7ff37006150e100c2
:1008f000fcff3a006a003700889fbe008a9fbe0056
:10090000008270000402710004827100260032002f
:100910000004be000200be006011b8006b09200098
:10092000950220000182cf000a0039000541b10084
:100930000082cf00070039000541b1000982cf00d5
:10094000040039000541b1000882cf0001003900e0
:100950000541b10005425200120032000a003b007e
:1009600082817100610164008100d1000080d300a8
:100970008984d3000884d3008b05e8000442e80092
:10098000f7ff3a00070037000804440089844c0050
:1009900000004800818048008b05e9000442e9001e
:1009a000f9ff3a00030007004f05be004f04be00e8
:1009b0000000060081002000618055000b003d0012
:1009c0000b00200061fe2f000100e1001d0034003b
:1009d00082817100610164008904d1000884d30020
:1009e0000000e800faff3a00710020006100640096
:1009f000030070000200600009003200610444003e
:100a0000e0844c000988a500050032008b05e80051
:100a10006808e10002003a008904d1000884d3008c
:100a2000f20f20000258e10005003d00c75ddd0027
:100a3000f907b20089807500080078000000060000
:100a40000bf827008b007800000005000004be00b2
:100a500060ff07000003be000405be000200be00e8
:100a60005cff0700844f7500000006000200be0016
:100a70006450e100050036006420e1000200360009
:100a80000968a30001003a000800be000160a00050
:100a90004f0678004f05be004f04be000000060060
:0c0aa000f0ff2f00f1ff2700f9ff3700e6
:020000040000fa
:100aac000000fa00c022ef00200020004016880051
:100abc00e224ef00140020000200200003f02300c9
:100acc0000c02300c1612400070007000002eb00f6
:100adc000200200003f0230000c02300c1612400a9
:100aec002d000700ffff37000a00fa00008fbe0040
:100afc002207980033079800440798001e00be0098
:100b0c0014ff070000007800a00c88008013200060
:100b1c00b00c88004e0090000040780061406000ee
:100b2c000080fb0061006000000040001116800096
:100b3c000110a10001007000101688009021ef0038
:100b4c00810c800000c0210001007000800c880026
:100b5c00900c8000f001b300900c880092e1a90089
:100b6c00810c800080ff2f00008060006000b300cb
:100b7c00800c880021058000f08f2f000080600021
:100b8c0000a0a000200588009440a8008440a90083
:100b9c000080fa00000006000a00fa00008fbe0078
:100bac002207980033079800440798001e00be00e7
:100bbc00e8fe070000007800f00c8800f00c8000c4
:100bcc008000eb00fefe07002e019000be0190009d
:100bdc0012ff0700dffe070000007800b00c880051
:100bec004e00900000407800614060000080fb00e7
:100bfc00610060004900dd00511680000190a100e9
:100c0c0001007000501688009021ef00d10c80007c
:100c1c0000c0210001007000d00c8800e00c8000a6
:100c2c00f001b300e00c88009ce1a900d10c80001d
:100c3c0080ff2f00008060006000b300d00c8800a3
:100c4c0031058000f08f2f000080600000a0a00014
:100c5c003005880094c0a80084c0a9000080fa0068
:100c6c00000006000600fa00008fbe002207980064
:100c7c00a00c80008000eb00d1fe07001e01be001e
:100c8c00e6fe070092fe070000007800b00c88001a
:100c9c000080fa00000006000600fa00008fbe007b
:100cac0022079800f00c80008000eb00c4fe0700c7
:100cbc001e01be00d9fe070085fe0700000078006b
:0c0ccc00000d88000080fa000000060007
:020000040000fa
:100cd80000080000040000000000000004080000f4
:100ce8000400000002000000000040004000000076
:040cf80000000000f8
:020000040000fa
:0200000401f009
:04000c00ffff0000f2
:00000001FF
